{
  "_format": "hh-sol-artifact-1",
  "contractName": "Dappazon",
  "sourceName": "contracts/Dappazon.sol",
  "abi": [
    {
      "inputs": [],
      "stateMutability": "nonpayable",
      "type": "constructor"
    },
    {
      "anonymous": false,
      "inputs": [
        {
          "indexed": false,
          "internalType": "address",
          "name": "buyer",
          "type": "address"
        },
        {
          "indexed": false,
          "internalType": "uint256",
          "name": "orderId",
          "type": "uint256"
        },
        {
          "indexed": false,
          "internalType": "uint256",
          "name": "itemId",
          "type": "uint256"
        }
      ],
      "name": "Buy",
      "type": "event"
    },
    {
      "anonymous": false,
      "inputs": [],
      "name": "GetItemCount",
      "type": "event"
    },
    {
      "anonymous": false,
      "inputs": [
        {
          "indexed": false,
          "internalType": "string",
          "name": "name",
          "type": "string"
        },
        {
          "indexed": false,
          "internalType": "uint256",
          "name": "cost",
          "type": "uint256"
        },
        {
          "indexed": false,
          "internalType": "uint256",
          "name": "stock",
          "type": "uint256"
        }
      ],
      "name": "List",
      "type": "event"
    },
    {
      "inputs": [
        {
          "internalType": "uint256",
          "name": "_id",
          "type": "uint256"
        }
      ],
      "name": "buy",
      "outputs": [],
      "stateMutability": "payable",
      "type": "function"
    },
    {
      "inputs": [],
      "name": "getItemCount",
      "outputs": [
        {
          "internalType": "uint256",
          "name": "",
          "type": "uint256"
        }
      ],
      "stateMutability": "view",
      "type": "function"
    },
    {
      "inputs": [],
      "name": "itemCount",
      "outputs": [
        {
          "internalType": "uint256",
          "name": "",
          "type": "uint256"
        }
      ],
      "stateMutability": "view",
      "type": "function"
    },
    {
      "inputs": [
        {
          "internalType": "uint256",
          "name": "",
          "type": "uint256"
        }
      ],
      "name": "items",
      "outputs": [
        {
          "internalType": "uint256",
          "name": "id",
          "type": "uint256"
        },
        {
          "internalType": "address",
          "name": "owner",
          "type": "address"
        },
        {
          "internalType": "string",
          "name": "name",
          "type": "string"
        },
        {
          "internalType": "string",
          "name": "category",
          "type": "string"
        },
        {
          "internalType": "string",
          "name": "image",
          "type": "string"
        },
        {
          "internalType": "uint256",
          "name": "cost",
          "type": "uint256"
        },
        {
          "internalType": "uint256",
          "name": "rating",
          "type": "uint256"
        },
        {
          "internalType": "uint256",
          "name": "stock",
          "type": "uint256"
        }
      ],
      "stateMutability": "view",
      "type": "function"
    },
    {
      "inputs": [
        {
          "internalType": "uint256",
          "name": "_id",
          "type": "uint256"
        },
        {
          "internalType": "string",
          "name": "_name",
          "type": "string"
        },
        {
          "internalType": "string",
          "name": "_category",
          "type": "string"
        },
        {
          "internalType": "string",
          "name": "_image",
          "type": "string"
        },
        {
          "internalType": "uint256",
          "name": "_cost",
          "type": "uint256"
        },
        {
          "internalType": "uint256",
          "name": "_rating",
          "type": "uint256"
        },
        {
          "internalType": "uint256",
          "name": "_stock",
          "type": "uint256"
        }
      ],
      "name": "list",
      "outputs": [],
      "stateMutability": "nonpayable",
      "type": "function"
    },
    {
      "inputs": [
        {
          "internalType": "address",
          "name": "",
          "type": "address"
        }
      ],
      "name": "orderCount",
      "outputs": [
        {
          "internalType": "uint256",
          "name": "",
          "type": "uint256"
        }
      ],
      "stateMutability": "view",
      "type": "function"
    },
    {
      "inputs": [
        {
          "internalType": "address",
          "name": "",
          "type": "address"
        },
        {
          "internalType": "uint256",
          "name": "",
          "type": "uint256"
        }
      ],
      "name": "orders",
      "outputs": [
        {
          "internalType": "uint256",
          "name": "time",
          "type": "uint256"
        },
        {
          "components": [
            {
              "internalType": "uint256",
              "name": "id",
              "type": "uint256"
            },
            {
              "internalType": "address",
              "name": "owner",
              "type": "address"
            },
            {
              "internalType": "string",
              "name": "name",
              "type": "string"
            },
            {
              "internalType": "string",
              "name": "category",
              "type": "string"
            },
            {
              "internalType": "string",
              "name": "image",
              "type": "string"
            },
            {
              "internalType": "uint256",
              "name": "cost",
              "type": "uint256"
            },
            {
              "internalType": "uint256",
              "name": "rating",
              "type": "uint256"
            },
            {
              "internalType": "uint256",
              "name": "stock",
              "type": "uint256"
            }
          ],
          "internalType": "struct Dappazon.Item",
          "name": "item",
          "type": "tuple"
        }
      ],
      "stateMutability": "view",
      "type": "function"
    },
    {
      "inputs": [],
      "name": "owner",
      "outputs": [
        {
          "internalType": "address",
          "name": "",
          "type": "address"
        }
      ],
      "stateMutability": "view",
      "type": "function"
    }
  ],
  "bytecode": "0x608060405234801561001057600080fd5b50336000806101000a81548173ffffffffffffffffffffffffffffffffffffffff021916908373ffffffffffffffffffffffffffffffffffffffff1602179055506000600181905550611837806100686000396000f3fe60806040526004361061007b5760003560e01c80638da5cb5b1161004e5780638da5cb5b14610151578063bfb231d21461017c578063d96a094a146101c0578063eea8a7e8146101dc5761007b565b80636bfb0d0114610080578063713d856b146100ab5780637749cf23146100e8578063793b8c6d14610113575b600080fd5b34801561008c57600080fd5b50610095610205565b6040516100a29190610df6565b60405180910390f35b3480156100b757600080fd5b506100d260048036038101906100cd9190610e83565b61020b565b6040516100df9190610df6565b60405180910390f35b3480156100f457600080fd5b506100fd610223565b60405161010a9190610df6565b60405180910390f35b34801561011f57600080fd5b5061013a60048036038101906101359190610edc565b61022d565b604051610148929190611088565b60405180910390f35b34801561015d57600080fd5b5061016661049d565b60405161017391906110c7565b60405180910390f35b34801561018857600080fd5b506101a3600480360381019061019e91906110e2565b6104c1565b6040516101b7989796959493929190611159565b60405180910390f35b6101da60048036038101906101d591906110e2565b6106c1565b005b3480156101e857600080fd5b5061020360048036038101906101fe9190611321565b610c63565b005b60015481565b60036020528060005260406000206000915090505481565b6000600154905090565b6004602052816000526040600020602052806000526040600020600091509150508060000154908060010160405180610100016040529081600082015481526020016001820160009054906101000a900473ffffffffffffffffffffffffffffffffffffffff1673ffffffffffffffffffffffffffffffffffffffff1673ffffffffffffffffffffffffffffffffffffffff1681526020016002820180546102d490611446565b80601f016020809104026020016040519081016040528092919081815260200182805461030090611446565b801561034d5780601f106103225761010080835404028352916020019161034d565b820191906000526020600020905b81548152906001019060200180831161033057829003601f168201915b5050505050815260200160038201805461036690611446565b80601f016020809104026020016040519081016040528092919081815260200182805461039290611446565b80156103df5780601f106103b4576101008083540402835291602001916103df565b820191906000526020600020905b8154815290600101906020018083116103c257829003601f168201915b505050505081526020016004820180546103f890611446565b80601f016020809104026020016040519081016040528092919081815260200182805461042490611446565b80156104715780601f1061044657610100808354040283529160200191610471565b820191906000526020600020905b81548152906001019060200180831161045457829003601f168201915b505050505081526020016005820154815260200160068201548152602001600782015481525050905082565b60008054906101000a900473ffffffffffffffffffffffffffffffffffffffff1681565b60026020528060005260406000206000915090508060000154908060010160009054906101000a900473ffffffffffffffffffffffffffffffffffffffff169080600201805461051090611446565b80601f016020809104026020016040519081016040528092919081815260200182805461053c90611446565b80156105895780601f1061055e57610100808354040283529160200191610589565b820191906000526020600020905b81548152906001019060200180831161056c57829003601f168201915b50505050509080600301805461059e90611446565b80601f01602080910402602001604051908101604052809291908181526020018280546105ca90611446565b80156106175780601f106105ec57610100808354040283529160200191610617565b820191906000526020600020905b8154815290600101906020018083116105fa57829003601f168201915b50505050509080600401805461062c90611446565b80601f016020809104026020016040519081016040528092919081815260200182805461065890611446565b80156106a55780601f1061067a576101008083540402835291602001916106a5565b820191906000526020600020905b81548152906001019060200180831161068857829003601f168201915b5050505050908060050154908060060154908060070154905088565b60006002600083815260200190815260200160002060405180610100016040529081600082015481526020016001820160009054906101000a900473ffffffffffffffffffffffffffffffffffffffff1673ffffffffffffffffffffffffffffffffffffffff1673ffffffffffffffffffffffffffffffffffffffff16815260200160028201805461075290611446565b80601f016020809104026020016040519081016040528092919081815260200182805461077e90611446565b80156107cb5780601f106107a0576101008083540402835291602001916107cb565b820191906000526020600020905b8154815290600101906020018083116107ae57829003601f168201915b505050505081526020016003820180546107e490611446565b80601f016020809104026020016040519081016040528092919081815260200182805461081090611446565b801561085d5780601f106108325761010080835404028352916020019161085d565b820191906000526020600020905b81548152906001019060200180831161084057829003601f168201915b5050505050815260200160048201805461087690611446565b80601f01602080910402602001604051908101604052809291908181526020018280546108a290611446565b80156108ef5780601f106108c4576101008083540402835291602001916108ef565b820191906000526020600020905b8154815290600101906020018083116108d257829003601f168201915b50505050508152602001600582015481526020016006820154815260200160078201548152505090508060a0015134101561092957600080fd5b60008160e001511161093a57600080fd5b806020015173ffffffffffffffffffffffffffffffffffffffff166108fc8260a001519081150290604051600060405180830381858888f19350505050158015610988573d6000803e3d6000fd5b508060a001513411156109ec573373ffffffffffffffffffffffffffffffffffffffff166108fc8260a00151346109bf91906114a6565b9081150290604051600060405180830381858888f193505050501580156109ea573d6000803e3d6000fd5b505b600060405180604001604052804281526020018381525090506001600360003373ffffffffffffffffffffffffffffffffffffffff1673ffffffffffffffffffffffffffffffffffffffff1681526020019081526020016000206000828254610a5591906114da565b9250508190555080600460003373ffffffffffffffffffffffffffffffffffffffff1673ffffffffffffffffffffffffffffffffffffffff1681526020019081526020016000206000600360003373ffffffffffffffffffffffffffffffffffffffff1673ffffffffffffffffffffffffffffffffffffffff168152602001908152602001600020548152602001908152602001600020600082015181600001556020820151816001016000820151816000015560208201518160010160006101000a81548173ffffffffffffffffffffffffffffffffffffffff021916908373ffffffffffffffffffffffffffffffffffffffff1602179055506040820151816002019081610b6591906116ba565b506060820151816003019081610b7b91906116ba565b506080820151816004019081610b9191906116ba565b5060a0820151816005015560c0820151816006015560e08201518160070155505090505060018260e00151610bc691906114a6565b60026000858152602001908152602001600020600701819055507f1cbc5ab135991bd2b6a4b034a04aa2aa086dac1371cb9b16b8b5e2ed6b036bed33600360003373ffffffffffffffffffffffffffffffffffffffff1673ffffffffffffffffffffffffffffffffffffffff168152602001908152602001600020548460000151604051610c569392919061178c565b60405180910390a1505050565b60006040518061010001604052808981526020013373ffffffffffffffffffffffffffffffffffffffff16815260200188815260200187815260200186815260200185815260200184815260200183815250905080600260008a81526020019081526020016000206000820151816000015560208201518160010160006101000a81548173ffffffffffffffffffffffffffffffffffffffff021916908373ffffffffffffffffffffffffffffffffffffffff1602179055506040820151816002019081610d3191906116ba565b506060820151816003019081610d4791906116ba565b506080820151816004019081610d5d91906116ba565b5060a0820151816005015560c0820151816006015560e082015181600701559050506001806000828254610d9191906114da565b925050819055507ffdbe2a012c10ec01592653978eaa09b5ca60b143a0e617505b2ebcbd911ec5b8878584604051610dcb939291906117c3565b60405180910390a15050505050505050565b6000819050919050565b610df081610ddd565b82525050565b6000602082019050610e0b6000830184610de7565b92915050565b6000604051905090565b600080fd5b600080fd5b600073ffffffffffffffffffffffffffffffffffffffff82169050919050565b6000610e5082610e25565b9050919050565b610e6081610e45565b8114610e6b57600080fd5b50565b600081359050610e7d81610e57565b92915050565b600060208284031215610e9957610e98610e1b565b5b6000610ea784828501610e6e565b91505092915050565b610eb981610ddd565b8114610ec457600080fd5b50565b600081359050610ed681610eb0565b92915050565b60008060408385031215610ef357610ef2610e1b565b5b6000610f0185828601610e6e565b9250506020610f1285828601610ec7565b9150509250929050565b610f2581610ddd565b82525050565b610f3481610e45565b82525050565b600081519050919050565b600082825260208201905092915050565b60005b83811015610f74578082015181840152602081019050610f59565b60008484015250505050565b6000601f19601f8301169050919050565b6000610f9c82610f3a565b610fa68185610f45565b9350610fb6818560208601610f56565b610fbf81610f80565b840191505092915050565b600061010083016000830151610fe36000860182610f1c565b506020830151610ff66020860182610f2b565b506040830151848203604086015261100e8282610f91565b915050606083015184820360608601526110288282610f91565b915050608083015184820360808601526110428282610f91565b91505060a083015161105760a0860182610f1c565b5060c083015161106a60c0860182610f1c565b5060e083015161107d60e0860182610f1c565b508091505092915050565b600060408201905061109d6000830185610de7565b81810360208301526110af8184610fca565b90509392505050565b6110c181610e45565b82525050565b60006020820190506110dc60008301846110b8565b92915050565b6000602082840312156110f8576110f7610e1b565b5b600061110684828501610ec7565b91505092915050565b600082825260208201905092915050565b600061112b82610f3a565b611135818561110f565b9350611145818560208601610f56565b61114e81610f80565b840191505092915050565b60006101008201905061116f600083018b610de7565b61117c602083018a6110b8565b818103604083015261118e8189611120565b905081810360608301526111a28188611120565b905081810360808301526111b68187611120565b90506111c560a0830186610de7565b6111d260c0830185610de7565b6111df60e0830184610de7565b9998505050505050505050565b600080fd5b600080fd5b7f4e487b7100000000000000000000000000000000000000000000000000000000600052604160045260246000fd5b61122e82610f80565b810181811067ffffffffffffffff8211171561124d5761124c6111f6565b5b80604052505050565b6000611260610e11565b905061126c8282611225565b919050565b600067ffffffffffffffff82111561128c5761128b6111f6565b5b61129582610f80565b9050602081019050919050565b82818337600083830152505050565b60006112c46112bf84611271565b611256565b9050828152602081018484840111156112e0576112df6111f1565b5b6112eb8482856112a2565b509392505050565b600082601f830112611308576113076111ec565b5b81356113188482602086016112b1565b91505092915050565b600080600080600080600060e0888a0312156113405761133f610e1b565b5b600061134e8a828b01610ec7565b975050602088013567ffffffffffffffff81111561136f5761136e610e20565b5b61137b8a828b016112f3565b965050604088013567ffffffffffffffff81111561139c5761139b610e20565b5b6113a88a828b016112f3565b955050606088013567ffffffffffffffff8111156113c9576113c8610e20565b5b6113d58a828b016112f3565b94505060806113e68a828b01610ec7565b93505060a06113f78a828b01610ec7565b92505060c06114088a828b01610ec7565b91505092959891949750929550565b7f4e487b7100000000000000000000000000000000000000000000000000000000600052602260045260246000fd5b6000600282049050600182168061145e57607f821691505b60208210810361147157611470611417565b5b50919050565b7f4e487b7100000000000000000000000000000000000000000000000000000000600052601160045260246000fd5b60006114b182610ddd565b91506114bc83610ddd565b92508282039050818111156114d4576114d3611477565b5b92915050565b60006114e582610ddd565b91506114f083610ddd565b925082820190508082111561150857611507611477565b5b92915050565b60008190508160005260206000209050919050565b60006020601f8301049050919050565b600082821b905092915050565b6000600883026115707fffffffffffffffffffffffffffffffffffffffffffffffffffffffffffffffff82611533565b61157a8683611533565b95508019841693508086168417925050509392505050565b6000819050919050565b60006115b76115b26115ad84610ddd565b611592565b610ddd565b9050919050565b6000819050919050565b6115d18361159c565b6115e56115dd826115be565b848454611540565b825550505050565b600090565b6115fa6115ed565b6116058184846115c8565b505050565b5b818110156116295761161e6000826115f2565b60018101905061160b565b5050565b601f82111561166e5761163f8161150e565b61164884611523565b81016020851015611657578190505b61166b61166385611523565b83018261160a565b50505b505050565b600082821c905092915050565b600061169160001984600802611673565b1980831691505092915050565b60006116aa8383611680565b9150826002028217905092915050565b6116c382610f3a565b67ffffffffffffffff8111156116dc576116db6111f6565b5b6116e68254611446565b6116f182828561162d565b600060209050601f8311600181146117245760008415611712578287015190505b61171c858261169e565b865550611784565b601f1984166117328661150e565b60005b8281101561175a57848901518255600182019150602085019450602081019050611735565b868310156117775784890151611773601f891682611680565b8355505b6001600288020188555050505b505050505050565b60006060820190506117a160008301866110b8565b6117ae6020830185610de7565b6117bb6040830184610de7565b949350505050565b600060608201905081810360008301526117dd8186611120565b90506117ec6020830185610de7565b6117f96040830184610de7565b94935050505056fea26469706673582212203b8e802fe2fde4b78ef863001ed91ab935eecbd1d0b49109d78282d87db1930064736f6c63430008110033",
  "linkReferences": {},
  "deployedLinkReferences": {}
}